:1009E00073657420686F75723A00202020202020E3
:1009F00020202000736574206D696E3A002020204D
:100A0000202020202000736574207365633A0073F2
:100A1000657420646174653A00736574206D6F6E4F
:100A200074683A0073657420796561723A323000F7
:100A300054696D653A2000446174653A00323000B3
:100CD800C2A57F647E00120B51D2A57F647E0002FC
:020CE8000B51AE
:03001B0002086D6B
:10086D00C0E0C0F0C083C082C0D075D000C000C051
:0D087D0001C002C003C004C005C006C007D2
:10088A00758D3C758BB00508E50864147038F50859
:10089A00F50D750E00750F26F510751100751222EB
:1008AA00FB7A007925FF120A40750D00750E007556
:1008BA000F217510007511007512237B007A0079DB
:0608CA00247F04120A4025
:1008D000D007D006D005D004D003D002D001D0007C
:0B08E000D0D0D082D083D0F0D0E03226
:1005280020B1437FC87E00120B510525E525B4187C
:1005380003E4F525852216AB26AD25E4FF120B77DB
:100548007D0A7F01120C07E52575F00A1209662459
:1005580030FF120D71E52575F00A120966AFF0EF4C
:100568002430FF120D7120B2437FC87E00120B5158
:100578001525E525B4FF03752517852216AB26AD8D
:1005880025E4FF120B777D0A7F01120C07E525751C
:10059800F00A1209662430FF120D71E52575F00A7C
:0D05A800120966AFF0EF2430FF120D712232
:1005B50020B1437FC87E00120B510526E526B43CC9
:1005C50003E4F526852216AB26AD25E4FF120B774D
:1005D5007D097F01120C07E52675F00A12096624CC
:1005E50030FF120D71E52675F00A120966AFF0EFBE
:1005F5002430FF120D7120B2437FC87E00120B51CB
:100605001526E526B4FF0375263B852216AB26ADD8
:1006150025E4FF120B777D097F01120C07E526758E
:10062500F00A1209662430FF120D71E52675F00AED
:0D063500120966AFF0EF2430FF120D7122A4
:1006420020B1437FC87E00120B510522E522B43C43
:1006520003E4F522852216AB26AD25E4FF120B77C3
:100662007D097F01120C07E52275F00A1209662442
:1006720030FF120D71E52275F00A120966AFF0EF34
:100682002430FF120D7120B2437FC87E00120B513D
:100692001522E522B4FF0375223B852216AB26AD57
:1006A20025E4FF120B777D097F01120C07E5227505
:1006B200F00A1209662430FF120D71E52275F00A64
:0D06C200120966AFF0EF2430FF120D712217
:10030E0030B10302041F7FC87E00120B510523E596
:10031E0023B41D15E521B40210E52475F00412096D
:10032E0066AFF0EF7003752301E523B41E15E521CA
:10033E00B40210E52475F004120966AFF0EF600305
:10034E00752301E523641F7047E52175F00212093C
:10035E0066AFF0BF0119C3E5216480F87480985030
:10036E00047E0180027E00C3EE64809488401EEFFE
:10037E00701ED3E5216480F8740D64809840047F6C
:10038E000180027F00D3EF648094874003752301C0
:10039E00E52364207049E52175F002120966AFF07D
:1003AE00EF701BC3E5216480F874026480985004DA
:1003BE007E0180027E00C3EE64809488401EBF01E1
:1003CE001ED3E5216480F8740D64809840047F018B
:1003DE0080027F00D3EF64809487400375230185EC
:1003EE002316AB21AD247F04120B777D0A7F0212F8
:1003FE000C07E52375F00A1209662430FF120D7101
:10040E00E52375F00A120966AFF0EF2430FF120DE6
:10041E007130B2030205277FC87E00120B51D5231F
:10042E0015E521B40210E52475F004120966AFF04B
:10043E00EF700375231CE5237015E521B40210E55A
:10044E002475F004120966AFF0EF600375231DE505
:10045E00237047E52175F002120966AFF0BF01194E
:10046E00C3E5216480F874809850047E0180027E7A
:10047E0000C3EE64809488401EEF701ED3E52164A5
:10048E0080F8740D64809840047F0180027F00D351
:10049E00EF64809487400375231EE5237049E521A0
:1004AE0075F002120966AFF0EF701BC3E521648090
:1004BE00F8740264809850047E0180027E00C3EEC0
:1004CE0064809488401EBF011ED3E5216480F874B9
:1004DE000D64809840047F0180027F00D3EF64801A
:1004EE009487400375231F852316AB21AD247F040B
:1004FE00120B777D0A7F02120C07E52375F00A12A4
:10050E0009662430FF120D71E52375F00A12096693
:0A051E00AFF0EF2430FF120D712240
:10075C0020B1437FC87E00120B510521E521B40D59
:10076C0003752101852316AB21AD247F04120B7771
:10077C007D0B7F02120C07E52175F00A1209662425
:10078C0030FF120D71E52175F00A120966AFF0EF1A
:10079C002430FF120D7120B23F7FC87E00120B5126
:1007AC00D5210375210C852316AB21AD247F0412B2
:1007BC000B777D0B7F02120C07E52175F00A1209ED
:1007CC00662430FF120D71E52175F00A120966AF2F
:0907DC00F0EF2430FF120D712230
:1006CF0020B1437FC87E00120B510524E524B4648A
:1006DF0003E4F524852316AB21AD247F04120B7799
:1006EF007D0C7F02120C07E52475F00A12096624AF
:1006FF0030FF120D71E52475F00A120966AFF0EFA5
:10070F002430FF120D7120B2437FC87E00120B51AF
:10071F001524E524B4FF03752463852316AB21AD9F
:10072F00247F04120B777D0C7F02120C07E52475D2
:10073F00F00A1209662430FF120D71E52475F00AD4
:0D074F00120966AFF0EF2430FF120D712289
:10001E0030B003020106120CD87F647E00120B5121
:10002E0030B0FD7F01120B9C1207E57D017F01129E
:10003E000C077BFF7A0979E07D327C00120AC9E554
:10004E002575F00A1209662430FF120D717F327E7B
:10005E0000120B51E52575F00A120966AFF0EF2478
:10006E0030FF120D717BFF7A0979EA7D327C001226
:10007E000AC9D20220020302010612052820B0602E
:10008E00120CD87F647E00120B5130B0FD7F01122E
:10009E000B9C1207E57D017F01120C077BFF7A098D
:1000AE0079F47D327C00120AC9E52675F00A120930
:1000BE00662430FF120D717F327E00120B51E52641
:1000CE0075F00A120966AFF0EF2430FF120D717B46
:1000DE00FF7A0979FD7D327C00120AC9C202D20371
:1000EE0020B391120CD87F10120C487F01120B9C7A
:1000FE0030B3FDC2020200823003701205B520B08B
:10010E0053120CD87F647E00120B5130B0FD7F016C
:10011E00120B9C1207E57D017F01120C077BFF7A03
:10012E000A79067D327C00120AC9E52275F00A12A0
:10013E0009662430FF120D717F327E00120B51E5DD
:10014E002275F00A120966AFF0EF2430FF120D711E
:10015E00C203D20420B3A1120CD87F10120C487F18
:10016E0001120B9C30B3FDC203808D300470120659
:10017E004220B053120CD87F647E00120B5130B067
:10018E00FD7F01120B9C1208EB7D017F02120C0702
:10019E007BFF7A0A790F7D327C00120AC9E523753E
:1001AE00F00A1209662430FF120D717F327E0012A2
:1001BE000B51E52375F00A120966AFF0EF2430FFFC
:1001CE00120D71C204D20520B3A1120CD87F1012E9
:1001DE000C487F01120B9C30B3FDC204808D30059C
:1001EE00731208EB12030E20B053120CD87F647EEC
:1001FE0000120B5130B0FD7F01120B9C1208EB7DEB
:10020E00017F02120C077BFF7A0A79197D327C007E
:10021E00120AC9E52175F00A1209662430FF120D83
:10022E00717F327E00120B51E52175F00A120966BC
:10023E00AFF0EF2430FF120D71C205D20620B39E2F
:10024E00120CD87F10120C487F01120B9C30B3FD9C
:10025E00C205808A3006731208EB12075C20B05379
:10026E00120CD87F647E00120B5130B0FD7F01124C
:10027E000B9C1208EB7D017F02120C077BFF7A0AA2
:10028E0079247D327C00120AC9E52475F00A120920
:10029E00662430FF120D717F327E00120B51E52461
:1002AE0075F00A120966AFF0EF2430FF120D71C21D
:1002BE0006D20720B39E120CD87F10120C487F0175
:1002CE00120B9C30B3FDC206808A3007321208EB47
:1002DE001206CF20B012120CD87F10120C487F01DC
:1002EE00120B9C30B0FDC20720B3DF120CD87F106A
:0F02FE00120C487F01120B9C30B3FDC20780CB5E
:01030D0022CD
:1008EB007D017F01120C077BFF7A0A79307D017C39
:1008FB0000120AC9E52575F00A1209662430FF12A9
:10090B000D71E52575F00A120966AFF0EF2430FF83
:10091B00120D717F3A120D71E52675F00A120966F8
:10092B002430FF120D71E52675F00A120966AFF03F
:10093B00EF2430FF120D717F3A120D71E52275F025
:10094B000A1209662430FF120D71E52275F00A12A6
:0B095B000966AFF0EF2430FF020D71C1
:1007E5007D017F02120C077BFF7A0A79377D017C38
:1007F50000120AC9E52375F00A1209662430FF12B2
:100805000D71E52375F00A120966AFF0EF2430FF8C
:10081500120D717F2F120D71E52175F00A1209660F
:100825002430FF120D71E52175F00A120966AFF04B
:10083500EF2430FF120D717F2F120D717BFF7A0AA5
:10084500793D7D017C00120AC9E52475F00A12097B
:10085500662430FF120D71E52475F00A120966AFA2
:08086500F0EF2430FF020D71D9
:100BE400120CD8120CD8120A8D758910758D3C75AB
:100BF4008BB0D28ED2ABD2AF1208EB1207E5120043
:030C04001E80F55A
:100B5100E4FDFCC3ED9FEE6480F8EC6480985015D1
:100B6100E4FBFA0BBB00010AEB647D4A70F50DBD95
:050B710000010C80DE14
:010B7600225C
:060CFC00D2A37F017E007F
:0B0D0200EF1FAC0670011E4C70F622C3
:090D5200120CFE120CFCC2A322DB
:080D5B00C2A2120D52D2A22225
:080D6300D2A2120D52D2A2220D
:0D0D2F00D2A2120CFCC2A2120CFEC2A32222
:10000300D2A2C2A3120CFEC2A2D2A37F027E00120E
:070013000D02D2A2D2A322CC
:020C7F00AD07BF
:100C8100E4FBED3392A2120D52ED25E0FD0BBB0802
:060C9100F1120D52D2A287
:010C9700223A
:100B2A00E4FDFB120CFEED25E0FDA2A2E433420532
:100B3A00120D520BBB08EC200105120D5B8003124B
:060B4A000D63D2A2AF050D
:010B50002282
:100CAE00AE07EF75F00A84C454F0FFEE75F00A84B7
:040CBE00EF25F0FF2F
:010CC200220F
:100D0D00AE07EFC4540F75F00AA4FFEE540F2FFF7A
:010D1D0022B3
:060D6B00120CAE020C7F29
:0A0D4800A2009201120B2A020D0D09
:100B77008F138D148B15120D2F7FD0120C7FAF138F
:100B8700120C7FAF16120D6BAF15120D6BAF14124F
:050B97000D6B020003DC
:100A40008F098B0A8A0B890C120D2F7FD0120C7F15
:100A5000AF09120C7F120D2F7FD1120C7FC2001232
:100A60000D48AB10AA11A912EF1209B5C200120D60
:100A700048AB0DAA0EA90FEF1209B5D200120D480E
:0D0A8000AB0AAA0BA90CEF1209B502000386
:100C6500120D2F7FD0120C7F7F07120C7F7F101281
:0A0C75000C7F7F93120C7F02000336
:100C28008F1B8D1CAF1C120CAE8F1C120D2F7FD08A
:100C3800120C7FAF1B120C7FAF1C120C7F0200033B
:020B01008F1D46
:100B0300120D2F7FD0120C7FAF1D120C7F120D2FF1
:100B13007FD1120C7FD201120B2A8F1E120003AF5A
:060B23001E120D0D8F1ED5
:010B290022A9
:100A8D007F38120B9C7F057E00120B517F38120BA5
:100A9D009C7F017E00120B517F38120B9C7F201220
:100AAD000CEAC2A7D2A77F027E00120B517F28123B
:0C0ABD000B9C7F01120B9C7F0C020B9C19
:100CEA00EF339287EFA2E69286A2E59285A2E4927A
:020CFA00842252
:100D1E00EFA2E39287A2E29286A2E19285139284D9
:010D2E0022A2
:100B9C008F15C2A5C2A6120CEAC2A7D2A77F027EED
:100BAC0000120B51AF15120D1EC2A7D2A77F027EE9
:040BBC0000020B51D7
:100BC0008F1AC2A5D2A6120CEAC2A7D2A77F017EB5
:100BD00000120B51AF1A120D1EC2A7D2A77F017EC1
:040BE00000020B51B3
:030D7100020BC0B2
:0A0AC9008C168D178B138A14891503
:100AD300120CC38F18E4F519E519C39518501EAB12
:100AE30013AA14A915851982758300120988FF12A8
:0D0AF3000BC0AF17AE16120B51051980DBBA
:010B000022D2
:100C07008F138D14E513B40109E514144480FF1202
:100C17000B9CE513B40209E5141444C0FF120B9CA6
:010C270022AA
:020C98008F27A4
:100C9A00E4F528E528C3952750097F10120B9C0517
:030CAA002880F0AF
:010CAD002224
:020C48008F1308
:100C4A00E4F514E514C3951350107F18120B9C7F1A
:0A0C5A00647E00120B51051480E9BE
:010C6400226D
:03000000020D3CB2
:0C0D3C00787FE4F6D8FD758128020BE4F6
:10096600C2D530F707B2D563F0FF05F030E70CB219
:10097600D5F4048463F0FF05F080018430D502F4D9
:02098600042249
:10098800BB010CE58229F582E5833AF583E0225024
:1009980006E92582F8E622BBFE06E92582F8E2226E
:0D09A800E58229F582E5833AF583E4932288
:1009B500BB010689828A83F0225002F722BBFE0121
:0209C500F3221B
:100CC300E4FFFE1209C7600C0FEF70010E09E97013
:050CD300F20A80EF228F
:1009C700BB010689828A83E0225002E722BBFE022E
:0909D700E32289828A83E4932261
:00000001FF
